{
  "contractName": "HelloTron",
  "abi": [
    {
      "inputs": [
        {
          "internalType": "string",
          "name": "initMessage",
          "type": "string"
        }
      ],
      "stateMutability": "nonpayable",
      "type": "constructor"
    },
    {
      "inputs": [],
      "name": "message",
      "outputs": [
        {
          "internalType": "string",
          "name": "",
          "type": "string"
        }
      ],
      "stateMutability": "view",
      "type": "function"
    },
    {
      "inputs": [
        {
          "internalType": "string",
          "name": "newMessage",
          "type": "string"
        }
      ],
      "name": "setMessage",
      "outputs": [],
      "stateMutability": "nonpayable",
      "type": "function"
    }
  ],
  "bytecode": "0x608060405234801562000010575f80fd5b50d380156200001d575f80fd5b50d280156200002a575f80fd5b5060405162000bc238038062000bc28339818101604052810190620000509190620001ed565b805f908162000060919062000473565b505062000557565b5f604051905090565b5f80fd5b5f80fd5b5f80fd5b5f80fd5b5f601f19601f8301169050919050565b7f4e487b71000000000000000000000000000000000000000000000000000000005f52604160045260245ffd5b620000c98262000081565b810181811067ffffffffffffffff82111715620000eb57620000ea62000091565b5b80604052505050565b5f620000ff62000068565b90506200010d8282620000be565b919050565b5f67ffffffffffffffff8211156200012f576200012e62000091565b5b6200013a8262000081565b9050602081019050919050565b5f5b838110156200016657808201518184015260208101905062000149565b5f8484015250505050565b5f62000187620001818462000112565b620000f4565b905082815260208101848484011115620001a657620001a56200007d565b5b620001b384828562000147565b509392505050565b5f82601f830112620001d257620001d162000079565b5b8151620001e484826020860162000171565b91505092915050565b5f6020828403121562000205576200020462000071565b5b5f82015167ffffffffffffffff81111562000225576200022462000075565b5b6200023384828501620001bb565b91505092915050565b5f81519050919050565b7f4e487b71000000000000000000000000000000000000000000000000000000005f52602260045260245ffd5b5f60028204905060018216806200028b57607f821691505b602082108103620002a157620002a062000246565b5b50919050565b5f819050815f5260205f209050919050565b5f6020601f8301049050919050565b5f82821b905092915050565b5f60088302620003057fffffffffffffffffffffffffffffffffffffffffffffffffffffffffffffffff82620002c8565b620003118683620002c8565b95508019841693508086168417925050509392505050565b5f819050919050565b5f819050919050565b5f6200035b620003556200034f8462000329565b62000332565b62000329565b9050919050565b5f819050919050565b62000376836200033b565b6200038e620003858262000362565b848454620002d4565b825550505050565b5f90565b620003a462000396565b620003b18184846200036b565b505050565b5b81811015620003d857620003cc5f826200039a565b600181019050620003b7565b5050565b601f8211156200042757620003f181620002a7565b620003fc84620002b9565b810160208510156200040c578190505b620004246200041b85620002b9565b830182620003b6565b50505b505050565b5f82821c905092915050565b5f620004495f19846008026200042c565b1980831691505092915050565b5f62000463838362000438565b9150826002028217905092915050565b6200047e826200023c565b67ffffffffffffffff8111156200049a576200049962000091565b5b620004a6825462000273565b620004b3828285620003dc565b5f60209050601f831160018114620004e9575f8415620004d4578287015190505b620004e0858262000456565b8655506200054f565b601f198416620004f986620002a7565b5f5b828110156200052257848901518255600182019150602085019450602081019050620004fb565b868310156200054257848901516200053e601f89168262000438565b8355505b6001600288020188555050505b505050505050565b61065d80620005655f395ff3fe608060405234801561000f575f80fd5b50d3801561001b575f80fd5b50d28015610027575f80fd5b506004361061004c575f3560e01c8063368b877214610050578063e21f37ce1461006c575b5f80fd5b61006a60048036038101906100659190610274565b61008a565b005b61007461009c565b6040516100819190610335565b60405180910390f35b805f90816100989190610558565b5050565b5f80546100a890610382565b80601f01602080910402602001604051908101604052809291908181526020018280546100d490610382565b801561011f5780601f106100f65761010080835404028352916020019161011f565b820191905f5260205f20905b81548152906001019060200180831161010257829003601f168201915b505050505081565b5f604051905090565b5f80fd5b5f80fd5b5f80fd5b5f80fd5b5f601f19601f8301169050919050565b7f4e487b71000000000000000000000000000000000000000000000000000000005f52604160045260245ffd5b61018682610140565b810181811067ffffffffffffffff821117156101a5576101a4610150565b5b80604052505050565b5f6101b7610127565b90506101c3828261017d565b919050565b5f67ffffffffffffffff8211156101e2576101e1610150565b5b6101eb82610140565b9050602081019050919050565b828183375f83830152505050565b5f610218610213846101c8565b6101ae565b9050828152602081018484840111156102345761023361013c565b5b61023f8482856101f8565b509392505050565b5f82601f83011261025b5761025a610138565b5b813561026b848260208601610206565b91505092915050565b5f6020828403121561028957610288610130565b5b5f82013567ffffffffffffffff8111156102a6576102a5610134565b5b6102b284828501610247565b91505092915050565b5f81519050919050565b5f82825260208201905092915050565b5f5b838110156102f25780820151818401526020810190506102d7565b5f8484015250505050565b5f610307826102bb565b61031181856102c5565b93506103218185602086016102d5565b61032a81610140565b840191505092915050565b5f6020820190508181035f83015261034d81846102fd565b905092915050565b7f4e487b71000000000000000000000000000000000000000000000000000000005f52602260045260245ffd5b5f600282049050600182168061039957607f821691505b6020821081036103ac576103ab610355565b5b50919050565b5f819050815f5260205f209050919050565b5f6020601f8301049050919050565b5f82821b905092915050565b5f6008830261040e7fffffffffffffffffffffffffffffffffffffffffffffffffffffffffffffffff826103d3565b61041886836103d3565b95508019841693508086168417925050509392505050565b5f819050919050565b5f819050919050565b5f61045c61045761045284610430565b610439565b610430565b9050919050565b5f819050919050565b61047583610442565b61048961048182610463565b8484546103df565b825550505050565b5f90565b61049d610491565b6104a881848461046c565b505050565b5b818110156104cb576104c05f82610495565b6001810190506104ae565b5050565b601f821115610510576104e1816103b2565b6104ea846103c4565b810160208510156104f9578190505b61050d610505856103c4565b8301826104ad565b50505b505050565b5f82821c905092915050565b5f6105305f1984600802610515565b1980831691505092915050565b5f6105488383610521565b9150826002028217905092915050565b610561826102bb565b67ffffffffffffffff81111561057a57610579610150565b5b6105848254610382565b61058f8282856104cf565b5f60209050601f8311600181146105c0575f84156105ae578287015190505b6105b8858261053d565b86555061061f565b601f1984166105ce866103b2565b5f5b828110156105f5578489015182556001820191506020850194506020810190506105d0565b86831015610612578489015161060e601f891682610521565b8355505b6001600288020188555050505b50505050505056fea26474726f6e58221220bc8ecf4a7a51d61660a211ba1e0091a1d23e90c3840ecc171f3b41755dae2a3f64736f6c63430008140033",
  "source": "// SPDX-License-Identifier: GPL-3.0\n\npragma solidity ^0.8.20;\n\ncontract HelloTron {\n\nstring public message;\n\nconstructor(string memory initMessage) public {\n\nmessage = initMessage;\n\n}\n\nfunction setMessage(string memory newMessage) public {\n\nmessage = newMessage;\n\n}\n\n}",
  "sourcePath": "/home/riki/Desktop/Programming/InchVest/contracts/contracts/HelloTron.sol",
  "compiler": {
    "name": "solc",
    "version": "0.8.20+commit.5f1834bc.Emscripten.clang"
  },
  "schemaVersion": "2.0.1",
  "updatedAt": "2025-07-31T11:14:49.030Z"
}