{
  "contractName": "HTLC",
  "abi": [
    {
      "inputs": [
        {
          "internalType": "address",
          "name": "_beneficiary",
          "type": "address"
        },
        {
          "internalType": "bytes32",
          "name": "_hashlock",
          "type": "bytes32"
        },
        {
          "internalType": "uint256",
          "name": "_timelock",
          "type": "uint256"
        }
      ],
      "stateMutability": "payable",
      "type": "constructor"
    },
    {
      "anonymous": false,
      "inputs": [
        {
          "indexed": true,
          "internalType": "bytes32",
          "name": "hashlock",
          "type": "bytes32"
        },
        {
          "indexed": false,
          "internalType": "uint256",
          "name": "timelock",
          "type": "uint256"
        },
        {
          "indexed": false,
          "internalType": "uint256",
          "name": "amount",
          "type": "uint256"
        }
      ],
      "name": "Locked",
      "type": "event"
    },
    {
      "anonymous": false,
      "inputs": [],
      "name": "Refunded",
      "type": "event"
    },
    {
      "anonymous": false,
      "inputs": [
        {
          "indexed": true,
          "internalType": "bytes32",
          "name": "secret",
          "type": "bytes32"
        }
      ],
      "name": "Withdrawn",
      "type": "event"
    },
    {
      "inputs": [],
      "name": "amount",
      "outputs": [
        {
          "internalType": "uint256",
          "name": "",
          "type": "uint256"
        }
      ],
      "stateMutability": "view",
      "type": "function"
    },
    {
      "inputs": [],
      "name": "beneficiary",
      "outputs": [
        {
          "internalType": "address",
          "name": "",
          "type": "address"
        }
      ],
      "stateMutability": "view",
      "type": "function"
    },
    {
      "inputs": [],
      "name": "hashlock",
      "outputs": [
        {
          "internalType": "bytes32",
          "name": "",
          "type": "bytes32"
        }
      ],
      "stateMutability": "view",
      "type": "function"
    },
    {
      "inputs": [],
      "name": "owner",
      "outputs": [
        {
          "internalType": "address",
          "name": "",
          "type": "address"
        }
      ],
      "stateMutability": "view",
      "type": "function"
    },
    {
      "inputs": [],
      "name": "refund",
      "outputs": [],
      "stateMutability": "nonpayable",
      "type": "function"
    },
    {
      "inputs": [],
      "name": "refunded",
      "outputs": [
        {
          "internalType": "bool",
          "name": "",
          "type": "bool"
        }
      ],
      "stateMutability": "view",
      "type": "function"
    },
    {
      "inputs": [],
      "name": "timelock",
      "outputs": [
        {
          "internalType": "uint256",
          "name": "",
          "type": "uint256"
        }
      ],
      "stateMutability": "view",
      "type": "function"
    },
    {
      "inputs": [
        {
          "internalType": "bytes32",
          "name": "_secret",
          "type": "bytes32"
        }
      ],
      "name": "withdraw",
      "outputs": [],
      "stateMutability": "nonpayable",
      "type": "function"
    },
    {
      "inputs": [],
      "name": "withdrawn",
      "outputs": [
        {
          "internalType": "bool",
          "name": "",
          "type": "bool"
        }
      ],
      "stateMutability": "view",
      "type": "function"
    }
  ],
  "bytecode": "0x608060405260405162000e2c38038062000e2c833981810160405281019062000029919062000249565b5f34116200006e576040517f08c379a0000000000000000000000000000000000000000000000000000000008152600401620000659062000300565b60405180910390fd5b335f806101000a81548173ffffffffffffffffffffffffffffffffffffffff021916908373ffffffffffffffffffffffffffffffffffffffff1602179055508260015f6101000a81548173ffffffffffffffffffffffffffffffffffffffff021916908373ffffffffffffffffffffffffffffffffffffffff160217905550816002819055508060038190555034600481905550817f070d5948a8db15203e2ed6413f0da41446f20cc2e7be2d9e5051dfff4a5565aa82346040516200013692919062000331565b60405180910390a25050506200035c565b5f80fd5b5f74ffffffffffffffffffffffffffffffffffffffffff82169050919050565b62000176816200014b565b811462000181575f80fd5b50565b5f73ffffffffffffffffffffffffffffffffffffffff82169050919050565b5f620001af8262000184565b9050919050565b5f81519050620001c6816200016b565b620001d181620001a3565b905092915050565b5f819050919050565b620001ed81620001d9565b8114620001f8575f80fd5b50565b5f815190506200020b81620001e2565b92915050565b5f819050919050565b620002258162000211565b811462000230575f80fd5b50565b5f8151905062000243816200021a565b92915050565b5f805f6060848603121562000263576200026262000147565b5b5f6200027286828701620001b6565b93505060206200028586828701620001fb565b9250506040620002988682870162000233565b9150509250925092565b5f82825260208201905092915050565b7f4d757374206c6f636b20736f6d652054525800000000000000000000000000005f82015250565b5f620002e8601283620002a2565b9150620002f582620002b2565b602082019050919050565b5f6020820190508181035f8301526200031981620002da565b9050919050565b6200032b8162000211565b82525050565b5f604082019050620003465f83018562000320565b62000355602083018462000320565b9392505050565b610ac2806200036a5f395ff3fe608060405234801561000f575f80fd5b50d3801561001b575f80fd5b50d28015610027575f80fd5b50600436106100a9575f3560e01c80638e19899e1161007c5780638e19899e14610111578063a782086e1461012d578063aa8c217c1461014b578063c80ec52214610169578063d33219b414610187576100a9565b806312f53950146100ad57806338af3eed146100cb578063590e1ae3146100e95780638da5cb5b146100f3575b5f80fd5b6100b56101a5565b6040516100c291906106a6565b60405180910390f35b6100d36101b8565b6040516100e091906106fe565b60405180910390f35b6100f16101dd565b005b6100fb6103fc565b60405161010891906106fe565b60405180910390f35b61012b6004803603810190610126919061074e565b61041f565b005b610135610668565b6040516101429190610788565b60405180910390f35b61015361066e565b60405161016091906107b9565b60405180910390f35b610171610674565b60405161017e91906106a6565b60405180910390f35b61018f610686565b60405161019c91906107b9565b60405180910390f35b600560019054906101000a900460ff1681565b60015f9054906101000a900473ffffffffffffffffffffffffffffffffffffffff1681565b60055f9054906101000a900460ff161561022c576040517f08c379a00000000000000000000000000000000000000000000000000000000081526004016102239061082c565b60405180910390fd5b600560019054906101000a900460ff161561027c576040517f08c379a000000000000000000000000000000000000000000000000000000000815260040161027390610894565b60405180910390fd5b6003544210156102c1576040517f08c379a00000000000000000000000000000000000000000000000000000000081526004016102b8906108fc565b60405180910390fd5b5f8054906101000a900473ffffffffffffffffffffffffffffffffffffffff1673ffffffffffffffffffffffffffffffffffffffff163373ffffffffffffffffffffffffffffffffffffffff161461034e576040517f08c379a000000000000000000000000000000000000000000000000000000000815260040161034590610964565b60405180910390fd5b6001600560016101000a81548160ff0219169083151502179055505f8054906101000a900473ffffffffffffffffffffffffffffffffffffffff1673ffffffffffffffffffffffffffffffffffffffff166108fc60045490811502906040515f60405180830381858888f193505050501580156103cd573d5f803e3d5ffd5b507f8616bbbbad963e4e65b1366f1d75dfb63f9e9704bbbf91fb01bec70849906cf760405160405180910390a1565b5f8054906101000a900473ffffffffffffffffffffffffffffffffffffffff1681565b60055f9054906101000a900460ff161561046e576040517f08c379a00000000000000000000000000000000000000000000000000000000081526004016104659061082c565b60405180910390fd5b600560019054906101000a900460ff16156104be576040517f08c379a00000000000000000000000000000000000000000000000000000000081526004016104b590610894565b60405180910390fd5b60015f9054906101000a900473ffffffffffffffffffffffffffffffffffffffff1673ffffffffffffffffffffffffffffffffffffffff163373ffffffffffffffffffffffffffffffffffffffff161461054d576040517f08c379a0000000000000000000000000000000000000000000000000000000008152600401610544906109cc565b60405180910390fd5b600254816040516020016105619190610a0a565b60405160208183030381529060405280519060200120146105b7576040517f08c379a00000000000000000000000000000000000000000000000000000000081526004016105ae90610a6e565b60405180910390fd5b600160055f6101000a81548160ff02191690831515021790555060015f9054906101000a900473ffffffffffffffffffffffffffffffffffffffff1673ffffffffffffffffffffffffffffffffffffffff166108fc60045490811502906040515f60405180830381858888f19350505050158015610637573d5f803e3d5ffd5b50807f44654674e66e9e53d34afdf3e9513fb94b4c8b946e980d6958ef4e6a37a153e360405160405180910390a250565b60025481565b60045481565b60055f9054906101000a900460ff1681565b60035481565b5f8115159050919050565b6106a08161068c565b82525050565b5f6020820190506106b95f830184610697565b92915050565b5f73ffffffffffffffffffffffffffffffffffffffff82169050919050565b5f6106e8826106bf565b9050919050565b6106f8816106de565b82525050565b5f6020820190506107115f8301846106ef565b92915050565b5f80fd5b5f819050919050565b61072d8161071b565b8114610737575f80fd5b50565b5f8135905061074881610724565b92915050565b5f6020828403121561076357610762610717565b5b5f6107708482850161073a565b91505092915050565b6107828161071b565b82525050565b5f60208201905061079b5f830184610779565b92915050565b5f819050919050565b6107b3816107a1565b82525050565b5f6020820190506107cc5f8301846107aa565b92915050565b5f82825260208201905092915050565b7f416c72656164792077697468647261776e0000000000000000000000000000005f82015250565b5f6108166011836107d2565b9150610821826107e2565b602082019050919050565b5f6020820190508181035f8301526108438161080a565b9050919050565b7f416c726561647920726566756e646564000000000000000000000000000000005f82015250565b5f61087e6010836107d2565b91506108898261084a565b602082019050919050565b5f6020820190508181035f8301526108ab81610872565b9050919050565b7f546f6f206561726c7900000000000000000000000000000000000000000000005f82015250565b5f6108e66009836107d2565b91506108f1826108b2565b602082019050919050565b5f6020820190508181035f830152610913816108da565b9050919050565b7f4e6f74206f776e657200000000000000000000000000000000000000000000005f82015250565b5f61094e6009836107d2565b91506109598261091a565b602082019050919050565b5f6020820190508181035f83015261097b81610942565b9050919050565b7f4e6f742062656e656669636961727900000000000000000000000000000000005f82015250565b5f6109b6600f836107d2565b91506109c182610982565b602082019050919050565b5f6020820190508181035f8301526109e3816109aa565b9050919050565b5f819050919050565b610a046109ff8261071b565b6109ea565b82525050565b5f610a1582846109f3565b60208201915081905092915050565b7f496e76616c6964207365637265740000000000000000000000000000000000005f82015250565b5f610a58600e836107d2565b9150610a6382610a24565b602082019050919050565b5f6020820190508181035f830152610a8581610a4c565b905091905056fea26474726f6e58221220bbb5435b609be6369691e86a2c29cfa6245abfb1948020873aba390d87520cd964736f6c63430008140033",
  "source": "// SPDX-License-Identifier: MIT\npragma solidity ^0.8.0;\n\n/// @title Simple HTLC for locking TRX on Tron\ncontract HTLC {\n    // owner who deployed\n    address public owner;\n\n    // beneficiary who can claim with secret\n    address public beneficiary;\n\n    // hashlock (keccak256 of the secret)\n    bytes32 public hashlock;\n\n    // UNIX timestamp after which sender can refund\n    uint256 public timelock;\n\n    // amount locked\n    uint256 public amount;\n\n    // whether funds were withdrawn\n    bool public withdrawn;\n\n    // whether refunded\n    bool public refunded;\n\n    // events\n    event Locked(bytes32 indexed hashlock, uint256 timelock, uint256 amount);\n    event Withdrawn(bytes32 indexed secret);\n    event Refunded();\n\n    constructor(\n        address _beneficiary,\n        bytes32 _hashlock,\n        uint256 _timelock\n    ) payable {\n        require(msg.value > 0, \"Must lock some TRX\");\n        owner       = msg.sender;\n        beneficiary = _beneficiary;\n        hashlock    = _hashlock;\n        timelock    = _timelock;\n        amount      = msg.value;\n\n        emit Locked(_hashlock, _timelock, msg.value);\n    }\n\n    /// @notice Claim the locked TRX by revealing the pre-image\n    function withdraw(bytes32 _secret) external {\n        require(!withdrawn, \"Already withdrawn\");\n        require(!refunded, \"Already refunded\");\n        require(msg.sender == beneficiary, \"Not beneficiary\");\n        require(keccak256(abi.encodePacked(_secret)) == hashlock, \"Invalid secret\");\n        withdrawn = true;\n\n        // send the funds\n        payable(beneficiary).transfer(amount);\n        emit Withdrawn(_secret);\n    }\n\n    /// @notice Refund the locked TRX after timelock\n    function refund() external {\n        require(!withdrawn, \"Already withdrawn\");\n        require(!refunded, \"Already refunded\");\n        require(block.timestamp >= timelock, \"Too early\");\n        require(msg.sender == owner, \"Not owner\");\n        refunded = true;\n\n        payable(owner).transfer(amount);\n        emit Refunded();\n    }\n}\n",
  "sourcePath": "/home/riki/Desktop/Programming/InchVest/contracts/contracts/HTLC.sol",
  "compiler": {
    "name": "solc",
    "version": "0.8.20+commit.5f1834bc.Emscripten.clang"
  },
  "schemaVersion": "2.0.1",
  "updatedAt": "2025-07-31T12:50:40.832Z"
}